{
  "contractName": "TwitterContract",
  "abi": [
    {
      "anonymous": false,
      "inputs": [
        {
          "indexed": false,
          "internalType": "address",
          "name": "recipient",
          "type": "address"
        },
        {
          "indexed": false,
          "internalType": "uint256",
          "name": "tweetId",
          "type": "uint256"
        }
      ],
      "name": "CreateTweet",
      "type": "event"
    },
    {
      "anonymous": false,
      "inputs": [
        {
          "indexed": false,
          "internalType": "uint256",
          "name": "tweetId",
          "type": "uint256"
        },
        {
          "indexed": false,
          "internalType": "bool",
          "name": "isDeleted",
          "type": "bool"
        }
      ],
      "name": "DeleteTweet",
      "type": "event"
    },
    {
      "anonymous": false,
      "inputs": [
        {
          "indexed": false,
          "internalType": "uint256",
          "name": "tweetId",
          "type": "uint256"
        },
        {
          "indexed": false,
          "internalType": "uint256",
          "name": "likesCount",
          "type": "uint256"
        }
      ],
      "name": "LikeTweet",
      "type": "event"
    },
    {
      "inputs": [
        {
          "internalType": "string",
          "name": "tweetText",
          "type": "string"
        },
        {
          "internalType": "string",
          "name": "tweetImage",
          "type": "string"
        }
      ],
      "name": "createTweet",
      "outputs": [],
      "stateMutability": "nonpayable",
      "type": "function"
    },
    {
      "inputs": [],
      "name": "getAllTweets",
      "outputs": [
        {
          "components": [
            {
              "internalType": "uint256",
              "name": "id",
              "type": "uint256"
            },
            {
              "internalType": "address",
              "name": "username",
              "type": "address"
            },
            {
              "internalType": "string",
              "name": "tweetText",
              "type": "string"
            },
            {
              "internalType": "string",
              "name": "tweetImage",
              "type": "string"
            },
            {
              "internalType": "uint256",
              "name": "likes",
              "type": "uint256"
            },
            {
              "internalType": "bool",
              "name": "isDeleted",
              "type": "bool"
            }
          ],
          "internalType": "struct TwitterContract.Tweet[]",
          "name": "",
          "type": "tuple[]"
        }
      ],
      "stateMutability": "view",
      "type": "function",
      "constant": true
    },
    {
      "inputs": [],
      "name": "getMyTweets",
      "outputs": [
        {
          "components": [
            {
              "internalType": "uint256",
              "name": "id",
              "type": "uint256"
            },
            {
              "internalType": "address",
              "name": "username",
              "type": "address"
            },
            {
              "internalType": "string",
              "name": "tweetText",
              "type": "string"
            },
            {
              "internalType": "string",
              "name": "tweetImage",
              "type": "string"
            },
            {
              "internalType": "uint256",
              "name": "likes",
              "type": "uint256"
            },
            {
              "internalType": "bool",
              "name": "isDeleted",
              "type": "bool"
            }
          ],
          "internalType": "struct TwitterContract.Tweet[]",
          "name": "",
          "type": "tuple[]"
        }
      ],
      "stateMutability": "view",
      "type": "function",
      "constant": true
    },
    {
      "inputs": [
        {
          "internalType": "uint256",
          "name": "tweetId",
          "type": "uint256"
        },
        {
          "internalType": "bool",
          "name": "isDeleted",
          "type": "bool"
        }
      ],
      "name": "deleteTweet",
      "outputs": [],
      "stateMutability": "nonpayable",
      "type": "function"
    },
    {
      "inputs": [
        {
          "internalType": "uint256",
          "name": "tweetId",
          "type": "uint256"
        }
      ],
      "name": "addLikeToTweet",
      "outputs": [],
      "stateMutability": "nonpayable",
      "type": "function"
    }
  ],
  "bytecode": "0x608060405234801561001057600080fd5b50611585806100206000396000f3fe608060405234801561001057600080fd5b50600436106100575760003560e01c8063532561351461005c5780638cd14d301461007a578063aefedbc214610096578063d70795b1146100b4578063f0312a37146100d0575b600080fd5b6100646100ec565b6040516100719190610e47565b60405180910390f35b610094600480360381019061008f9190610fb2565b610469565b005b61009e61061d565b6040516100ab9190610e47565b60405180910390f35b6100ce60048036038101906100c99190611056565b610a05565b005b6100ea60048036038101906100e591906110af565b610ac1565b005b60606000808054905067ffffffffffffffff81111561010e5761010d610e87565b5b60405190808252806020026020018201604052801561014757816020015b610134610ba2565b81526020019060019003908161012c5790505b5090506000805b6000805490508110156103af576000151560008281548110610173576101726110ef565b5b906000526020600020906006020160050160009054906101000a900460ff1615150361039c57600081815481106101ad576101ac6110ef565b5b90600052602060002090600602016040518060c0016040529081600082015481526020016001820160009054906101000a900473ffffffffffffffffffffffffffffffffffffffff1673ffffffffffffffffffffffffffffffffffffffff1673ffffffffffffffffffffffffffffffffffffffff1681526020016002820180546102369061114d565b80601f01602080910402602001604051908101604052809291908181526020018280546102629061114d565b80156102af5780601f10610284576101008083540402835291602001916102af565b820191906000526020600020905b81548152906001019060200180831161029257829003601f168201915b505050505081526020016003820180546102c89061114d565b80601f01602080910402602001604051908101604052809291908181526020018280546102f49061114d565b80156103415780601f1061031657610100808354040283529160200191610341565b820191906000526020600020905b81548152906001019060200180831161032457829003601f168201915b50505050508152602001600482015481526020016005820160009054906101000a900460ff161515151581525050838381518110610382576103816110ef565b5b60200260200101819052508180610398906111ad565b9250505b80806103a7906111ad565b91505061014e565b5060008167ffffffffffffffff8111156103cc576103cb610e87565b5b60405190808252806020026020018201604052801561040557816020015b6103f2610ba2565b8152602001906001900390816103ea5790505b50905060005b8281101561045f57838181518110610426576104256110ef565b5b6020026020010151828281518110610441576104406110ef565b5b60200260200101819052508080610457906111ad565b91505061040b565b5080935050505090565b60008080549050905060006040518060c001604052808381526020013373ffffffffffffffffffffffffffffffffffffffff168152602001858152602001848152602001600081526020016000151581525090806001815401808255809150506001900390600052602060002090600602016000909190919091506000820151816000015560208201518160010160006101000a81548173ffffffffffffffffffffffffffffffffffffffff021916908373ffffffffffffffffffffffffffffffffffffffff160217905550604082015181600201908161054a91906113a1565b50606082015181600301908161056091906113a1565b506080820151816004015560a08201518160050160006101000a81548160ff0219169083151502179055505050336001600083815260200190815260200160002060006101000a81548173ffffffffffffffffffffffffffffffffffffffff021916908373ffffffffffffffffffffffffffffffffffffffff1602179055507f6b915add1a5c3d0ddd7bfc564aff101c786dc80d204771162fda3552e8c1eef13382604051610610929190611491565b60405180910390a1505050565b60606000808054905067ffffffffffffffff81111561063f5761063e610e87565b5b60405190808252806020026020018201604052801561067857816020015b610665610ba2565b81526020019060019003908161065d5790505b5090506000805b60008054905081101561094b573373ffffffffffffffffffffffffffffffffffffffff166001600083815260200190815260200160002060009054906101000a900473ffffffffffffffffffffffffffffffffffffffff1673ffffffffffffffffffffffffffffffffffffffff161480156107305750600015156000828154811061070d5761070c6110ef565b5b906000526020600020906006020160050160009054906101000a900460ff161515145b156109385760008181548110610749576107486110ef565b5b90600052602060002090600602016040518060c0016040529081600082015481526020016001820160009054906101000a900473ffffffffffffffffffffffffffffffffffffffff1673ffffffffffffffffffffffffffffffffffffffff1673ffffffffffffffffffffffffffffffffffffffff1681526020016002820180546107d29061114d565b80601f01602080910402602001604051908101604052809291908181526020018280546107fe9061114d565b801561084b5780601f106108205761010080835404028352916020019161084b565b820191906000526020600020905b81548152906001019060200180831161082e57829003601f168201915b505050505081526020016003820180546108649061114d565b80601f01602080910402602001604051908101604052809291908181526020018280546108909061114d565b80156108dd5780601f106108b2576101008083540402835291602001916108dd565b820191906000526020600020905b8154815290600101906020018083116108c057829003601f168201915b50505050508152602001600482015481526020016005820160009054906101000a900460ff16151515158152505083838151811061091e5761091d6110ef565b5b60200260200101819052508180610934906111ad565b9250505b8080610943906111ad565b91505061067f565b5060008167ffffffffffffffff81111561096857610967610e87565b5b6040519080825280602002602001820160405280156109a157816020015b61098e610ba2565b8152602001906001900390816109865790505b50905060005b828110156109fb578381815181106109c2576109c16110ef565b5b60200260200101518282815181106109dd576109dc6110ef565b5b602002602001018190525080806109f3906111ad565b9150506109a7565b5080935050505090565b600160008281548110610a1b57610a1a6110ef565b5b906000526020600020906006020160040154610a3791906114ba565b60008281548110610a4b57610a4a6110ef565b5b9060005260206000209060060201600401819055507fce95d00b5d978b6c1ea0db3dea02ad6b73bd5f44eaf3626d9c7c30dedbca69668160008381548110610a9657610a956110ef565b5b906000526020600020906006020160040154604051610ab69291906114ee565b60405180910390a150565b3373ffffffffffffffffffffffffffffffffffffffff166001600084815260200190815260200160002060009054906101000a900473ffffffffffffffffffffffffffffffffffffffff1673ffffffffffffffffffffffffffffffffffffffff1603610b9e578060008381548110610b3c57610b3b6110ef565b5b906000526020600020906006020160050160006101000a81548160ff0219169083151502179055507f2430f837dd2fb40e08c064be9db3d0cf2a7a21f8fe716a2a41787dafc66a7e2a8282604051610b95929190611526565b60405180910390a15b5050565b6040518060c0016040528060008152602001600073ffffffffffffffffffffffffffffffffffffffff1681526020016060815260200160608152602001600081526020016000151581525090565b600081519050919050565b600082825260208201905092915050565b6000819050602082019050919050565b6000819050919050565b610c2f81610c1c565b82525050565b600073ffffffffffffffffffffffffffffffffffffffff82169050919050565b6000610c6082610c35565b9050919050565b610c7081610c55565b82525050565b600081519050919050565b600082825260208201905092915050565b60005b83811015610cb0578082015181840152602081019050610c95565b60008484015250505050565b6000601f19601f8301169050919050565b6000610cd882610c76565b610ce28185610c81565b9350610cf2818560208601610c92565b610cfb81610cbc565b840191505092915050565b60008115159050919050565b610d1b81610d06565b82525050565b600060c083016000830151610d396000860182610c26565b506020830151610d4c6020860182610c67565b5060408301518482036040860152610d648282610ccd565b91505060608301518482036060860152610d7e8282610ccd565b9150506080830151610d936080860182610c26565b5060a0830151610da660a0860182610d12565b508091505092915050565b6000610dbd8383610d21565b905092915050565b6000602082019050919050565b6000610ddd82610bf0565b610de78185610bfb565b935083602082028501610df985610c0c565b8060005b85811015610e355784840389528151610e168582610db1565b9450610e2183610dc5565b925060208a01995050600181019050610dfd565b50829750879550505050505092915050565b60006020820190508181036000830152610e618184610dd2565b905092915050565b6000604051905090565b600080fd5b600080fd5b600080fd5b600080fd5b7f4e487b7100000000000000000000000000000000000000000000000000000000600052604160045260246000fd5b610ebf82610cbc565b810181811067ffffffffffffffff82111715610ede57610edd610e87565b5b80604052505050565b6000610ef1610e69565b9050610efd8282610eb6565b919050565b600067ffffffffffffffff821115610f1d57610f1c610e87565b5b610f2682610cbc565b9050602081019050919050565b82818337600083830152505050565b6000610f55610f5084610f02565b610ee7565b905082815260208101848484011115610f7157610f70610e82565b5b610f7c848285610f33565b509392505050565b600082601f830112610f9957610f98610e7d565b5b8135610fa9848260208601610f42565b91505092915050565b60008060408385031215610fc957610fc8610e73565b5b600083013567ffffffffffffffff811115610fe757610fe6610e78565b5b610ff385828601610f84565b925050602083013567ffffffffffffffff81111561101457611013610e78565b5b61102085828601610f84565b9150509250929050565b61103381610c1c565b811461103e57600080fd5b50565b6000813590506110508161102a565b92915050565b60006020828403121561106c5761106b610e73565b5b600061107a84828501611041565b91505092915050565b61108c81610d06565b811461109757600080fd5b50565b6000813590506110a981611083565b92915050565b600080604083850312156110c6576110c5610e73565b5b60006110d485828601611041565b92505060206110e58582860161109a565b9150509250929050565b7f4e487b7100000000000000000000000000000000000000000000000000000000600052603260045260246000fd5b7f4e487b7100000000000000000000000000000000000000000000000000000000600052602260045260246000fd5b6000600282049050600182168061116557607f821691505b6020821081036111785761117761111e565b5b50919050565b7f4e487b7100000000000000000000000000000000000000000000000000000000600052601160045260246000fd5b60006111b882610c1c565b91507fffffffffffffffffffffffffffffffffffffffffffffffffffffffffffffffff82036111ea576111e961117e565b5b600182019050919050565b60008190508160005260206000209050919050565b60006020601f8301049050919050565b600082821b905092915050565b6000600883026112577fffffffffffffffffffffffffffffffffffffffffffffffffffffffffffffffff8261121a565b611261868361121a565b95508019841693508086168417925050509392505050565b6000819050919050565b600061129e61129961129484610c1c565b611279565b610c1c565b9050919050565b6000819050919050565b6112b883611283565b6112cc6112c4826112a5565b848454611227565b825550505050565b600090565b6112e16112d4565b6112ec8184846112af565b505050565b5b81811015611310576113056000826112d9565b6001810190506112f2565b5050565b601f82111561135557611326816111f5565b61132f8461120a565b8101602085101561133e578190505b61135261134a8561120a565b8301826112f1565b50505b505050565b600082821c905092915050565b60006113786000198460080261135a565b1980831691505092915050565b60006113918383611367565b9150826002028217905092915050565b6113aa82610c76565b67ffffffffffffffff8111156113c3576113c2610e87565b5b6113cd825461114d565b6113d8828285611314565b600060209050601f83116001811461140b57600084156113f9578287015190505b6114038582611385565b86555061146b565b601f198416611419866111f5565b60005b828110156114415784890151825560018201915060208501945060208101905061141c565b8683101561145e578489015161145a601f891682611367565b8355505b6001600288020188555050505b505050505050565b61147c81610c55565b82525050565b61148b81610c1c565b82525050565b60006040820190506114a66000830185611473565b6114b36020830184611482565b9392505050565b60006114c582610c1c565b91506114d083610c1c565b92508282019050808211156114e8576114e761117e565b5b92915050565b60006040820190506115036000830185611482565b6115106020830184611482565b9392505050565b61152081610d06565b82525050565b600060408201905061153b6000830185611482565b6115486020830184611517565b939250505056fea26469706673582212209b97a457a8e3757e35865c27e64e6990645fc06adbbc49083d41f112ce1a69c664736f6c63430008120033",
  "immutableReferences": {},
  "source": "// SPDX-License-Identifier: GPL-3.0\n\npragma solidity >=0.4.22 <0.9.0;\n\n/**\n * @title Twitter Contract\n * @dev Store & retrieve value in a variable\n */\ncontract TwitterContract {\n\n    event CreateTweet(address recipient, uint tweetId);\n    event DeleteTweet(uint tweetId, bool isDeleted);\n    event LikeTweet(uint tweetId, uint likesCount);\n\n    struct Tweet {\n        uint id;\n        address username;\n        string tweetText;\n        string tweetImage;\n        uint likes;\n        bool isDeleted;\n    }\n\n    Tweet[] private tweets;\n\n    // Mapping of Tweet id to the wallet address of the user\n    mapping(uint256 => address) tweetToOwner;\n\n    // Method to be called by our frontend when trying to add a new Tweet\n    function createTweet(string memory tweetText, string memory tweetImage) external {\n        uint tweetId = tweets.length;\n        tweets.push(Tweet(tweetId, msg.sender, tweetText, tweetImage, 0, false));\n        tweetToOwner[tweetId] = msg.sender;\n        emit CreateTweet(msg.sender, tweetId);\n    }\n\n    // Method to get all the Tweets\n    function getAllTweets() external view returns (Tweet[] memory) {\n        Tweet[] memory temporary = new Tweet[](tweets.length);\n        uint counter = 0;\n        for(uint i=0; i<tweets.length; i++) {\n            if(tweets[i].isDeleted == false) {\n                temporary[counter] = tweets[i];\n                counter++;\n            }\n        }\n\n        Tweet[] memory result = new Tweet[](counter);\n        for(uint i=0; i<counter; i++) {\n            result[i] = temporary[i];\n        }\n        return result;\n    }\n\n    // Method to get only your Tweets\n    function getMyTweets() external view returns (Tweet[] memory) {\n        Tweet[] memory temporary = new Tweet[](tweets.length);\n        uint counter = 0;\n        for(uint i=0; i<tweets.length; i++) {\n            if(tweetToOwner[i] == msg.sender && tweets[i].isDeleted == false) {\n                temporary[counter] = tweets[i];\n                counter++;\n            }\n        }\n\n        Tweet[] memory result = new Tweet[](counter);\n        for(uint i=0; i<counter; i++) {\n            result[i] = temporary[i];\n        }\n        return result;\n    }\n\n    // Method to Delete a Tweet\n    function deleteTweet(uint tweetId, bool isDeleted) external {\n        if(tweetToOwner[tweetId] == msg.sender) {\n            tweets[tweetId].isDeleted = isDeleted;\n            emit DeleteTweet(tweetId, isDeleted);\n        }\n    }\n\n    // Method to add a Like to a Tweet\n    function addLikeToTweet(uint tweetId) external {\n        tweets[tweetId].likes = tweets[tweetId].likes + 1;\n        emit LikeTweet(tweetId, tweets[tweetId].likes);\n    }\n\n}\n",
  "sourcePath": "/Users/antonioparraga/Documents/Git/Experiments/twitter-web3-smartcontract/contracts/TwitterContract.sol",
  "compiler": {
    "name": "solc",
    "version": "0.8.18+commit.87f61d96.Emscripten.clang"
  },
  "schemaVersion": "3.4.12",
  "updatedAt": "2023-03-01T19:40:53.360Z",
  "networkType": "ethereum",
  "devdoc": {
    "details": "Store & retrieve value in a variable",
    "kind": "dev",
    "methods": {},
    "title": "Twitter Contract",
    "version": 1
  },
  "userdoc": {
    "kind": "user",
    "methods": {},
    "version": 1
  }
}